{
  "contractName": "omneeID",
  "abi": [
    {
      "constant": true,
      "inputs": [],
      "name": "owner",
      "outputs": [
        {
          "name": "",
          "type": "address"
        }
      ],
      "payable": false,
      "stateMutability": "view",
      "type": "function"
    },
    {
      "inputs": [
        {
          "name": "_entity_type",
          "type": "uint256"
        },
        {
          "name": "_f_name",
          "type": "string"
        },
        {
          "name": "_l_name",
          "type": "string"
        },
        {
          "name": "_email",
          "type": "string"
        },
        {
          "name": "_NHSNum",
          "type": "uint256"
        },
        {
          "name": "_senderAddress",
          "type": "address"
        }
      ],
      "payable": false,
      "stateMutability": "nonpayable",
      "type": "constructor"
    },
    {
      "constant": true,
      "inputs": [],
      "name": "changeInfo",
      "outputs": [
        {
          "name": "",
          "type": "string"
        }
      ],
      "payable": false,
      "stateMutability": "view",
      "type": "function"
    },
    {
      "constant": true,
      "inputs": [],
      "name": "getName",
      "outputs": [
        {
          "name": "_f_name",
          "type": "string"
        }
      ],
      "payable": false,
      "stateMutability": "view",
      "type": "function"
    },
    {
      "constant": true,
      "inputs": [],
      "name": "getInfo",
      "outputs": [
        {
          "name": "name_",
          "type": "string"
        },
        {
          "name": "lastname_",
          "type": "string"
        },
        {
          "name": "email_",
          "type": "string"
        },
        {
          "name": "NHSNum_",
          "type": "uint256"
        },
        {
          "name": "_owner",
          "type": "address"
        }
      ],
      "payable": false,
      "stateMutability": "view",
      "type": "function"
    }
  ],
  "bytecode": "0x6060604052341561000f57600080fd5b604051610a03380380610a0383398101604052808051906020019091908051820191906020018051820191906020018051820191906020018051906020019091908051906020019091905050856000800181905550846000600101908051906020019061007d92919061014c565b50836000600201908051906020019061009792919061014c565b5082600060030190805190602001906100b192919061014c565b508160006004018190555080600060050160006101000a81548173ffffffffffffffffffffffffffffffffffffffff021916908373ffffffffffffffffffffffffffffffffffffffff16021790555033600660006101000a81548173ffffffffffffffffffffffffffffffffffffffff021916908373ffffffffffffffffffffffffffffffffffffffff1602179055505050505050506101f1565b828054600181600116156101000203166002900490600052602060002090601f016020900481019282601f1061018d57805160ff19168380011785556101bb565b828001600101855582156101bb579182015b828111156101ba57825182559160200191906001019061019f565b5b5090506101c891906101cc565b5090565b6101ee91905b808211156101ea5760008160009055506001016101d2565b5090565b90565b610803806102006000396000f300606060405260043610610062576000357c0100000000000000000000000000000000000000000000000000000000900463ffffffff16806317d7de7c1461006757806336affb46146100f55780635a9b0b89146101835780638da5cb5b14610323575b600080fd5b341561007257600080fd5b61007a610378565b6040518080602001828103825283818151815260200191508051906020019080838360005b838110156100ba57808201518184015260208101905061009f565b50505050905090810190601f1680156100e75780820380516001836020036101000a031916815260200191505b509250505060405180910390f35b341561010057600080fd5b610108610423565b6040518080602001828103825283818151815260200191508051906020019080838360005b8381101561014857808201518184015260208101905061012d565b50505050905090810190601f1680156101755780820380516001836020036101000a031916815260200191505b509250505060405180910390f35b341561018e57600080fd5b610196610562565b604051808060200180602001806020018681526020018573ffffffffffffffffffffffffffffffffffffffff1673ffffffffffffffffffffffffffffffffffffffff168152602001848103845289818151815260200191508051906020019080838360005b838110156102165780820151818401526020810190506101fb565b50505050905090810190601f1680156102435780820380516001836020036101000a031916815260200191505b50848103835288818151815260200191508051906020019080838360005b8381101561027c578082015181840152602081019050610261565b50505050905090810190601f1680156102a95780820380516001836020036101000a031916815260200191505b50848103825287818151815260200191508051906020019080838360005b838110156102e25780820151818401526020810190506102c7565b50505050905090810190601f16801561030f5780820380516001836020036101000a031916815260200191505b509850505050505050505060405180910390f35b341561032e57600080fd5b61033661079d565b604051808273ffffffffffffffffffffffffffffffffffffffff1673ffffffffffffffffffffffffffffffffffffffff16815260200191505060405180910390f35b6103806107c3565b60006001018054600181600116156101000203166002900480601f0160208091040260200160405190810160405280929190818152602001828054600181600116156101000203166002900480156104195780601f106103ee57610100808354040283529160200191610419565b820191906000526020600020905b8154815290600101906020018083116103fc57829003601f168201915b5050505050905090565b61042b6107c3565b600660009054906101000a900473ffffffffffffffffffffffffffffffffffffffff1673ffffffffffffffffffffffffffffffffffffffff163373ffffffffffffffffffffffffffffffffffffffff1614156104be576040805190810160405280600b81526020017f68656c6c6f20776f726c64000000000000000000000000000000000000000000815250905061055f565b60006001018054600181600116156101000203166002900480601f0160208091040260200160405190810160405280929190818152602001828054600181600116156101000203166002900480156105575780601f1061052c57610100808354040283529160200191610557565b820191906000526020600020905b81548152906001019060200180831161053a57829003601f168201915b505050505090505b90565b61056a6107c3565b6105726107c3565b61057a6107c3565b600080600060010160006002016000600301600060040154600060050160009054906101000a900473ffffffffffffffffffffffffffffffffffffffff16848054600181600116156101000203166002900480601f01602080910402602001604051908101604052809291908181526020018280546001816001161561010002031660029004801561064d5780601f106106225761010080835404028352916020019161064d565b820191906000526020600020905b81548152906001019060200180831161063057829003601f168201915b50505050509450838054600181600116156101000203166002900480601f0160208091040260200160405190810160405280929190818152602001828054600181600116156101000203166002900480156106e95780601f106106be576101008083540402835291602001916106e9565b820191906000526020600020905b8154815290600101906020018083116106cc57829003601f168201915b50505050509350828054600181600116156101000203166002900480601f0160208091040260200160405190810160405280929190818152602001828054600181600116156101000203166002900480156107855780601f1061075a57610100808354040283529160200191610785565b820191906000526020600020905b81548152906001019060200180831161076857829003601f168201915b50505050509250945094509450945094509091929394565b600660009054906101000a900473ffffffffffffffffffffffffffffffffffffffff1681565b6020604051908101604052806000815250905600a165627a7a72305820205e67e2f09c4ebebc4a95a0a30333dd259eb668feaabae8e1bf4de5e4d96a0e0029",
  "source": "pragma solidity ^0.4.6;\n\ncontract omneeID {\n\n    struct omneeInfo {\n        uint entityType;\n        string firstname;\n        string lastname;\n        string email;\n        uint NHSNum;\n        address owner;\n    }\n\n    omneeInfo omneeUser;\n    address public owner;\n\n    // Constructor\n    function omneeID(uint _entity_type, string _f_name, string _l_name, string _email, uint _NHSNum, address _senderAddress) public {\n        // We should have a if statement and using oraclise we connect to.\n        // a server with the original omneePortal address.\n        // so that we only create this contract if it is created by it.\n\n        omneeUser.entityType = _entity_type;\n        omneeUser.firstname = _f_name;\n        omneeUser.lastname = _l_name;\n        omneeUser.email = _email;\n        omneeUser.NHSNum = _NHSNum;\n        omneeUser.owner = _senderAddress;\n        owner = msg.sender;\n    }\n\n    // function to make changes to users primary information\n    function changeInfo() public constant returns(string) {\n        // Only the creator can alter the name --\n        // the comparison is possible since contracts\n        // are implicitly convertible to addresses.\n        if (msg.sender == address(owner)) {\n            return \"hello world\";\n        } else {\n            return omneeUser.firstname;\n        }\n    }\n\n    function getName() public constant returns(string _f_name) {\n        return omneeUser.firstname;\n    }\n\n    function getInfo() public view returns(string name_, string lastname_, string email_, uint NHSNum_, address _owner) {\n        return (omneeUser.firstname, omneeUser.lastname, omneeUser.email, omneeUser.NHSNum, omneeUser.owner);\n    }\n}\n",
  "sourcePath": "/Library/WebServer/Documents/DataBankingReact/contracts/omneeID.sol",
  "compiler": {
    "name": "solc",
    "version": "0.4.19+commit.c4cbbb05.Emscripten.clang"
  },
  "schemaVersion": "1.0.1",
  "updatedAt": "2018-03-16T10:46:35.147Z"
}