{
  "contractName": "omneePortal",
  "abi": [
    {
      "constant": true,
      "inputs": [
        {
          "name": "",
          "type": "address"
        }
      ],
      "name": "directory",
      "outputs": [
        {
          "name": "",
          "type": "address"
        }
      ],
      "payable": false,
      "stateMutability": "view",
      "type": "function"
    },
    {
      "constant": true,
      "inputs": [],
      "name": "usersOmneeID",
      "outputs": [
        {
          "name": "",
          "type": "address"
        }
      ],
      "payable": false,
      "stateMutability": "view",
      "type": "function"
    },
    {
      "constant": false,
      "inputs": [
        {
          "name": "_entity_type",
          "type": "uint256"
        },
        {
          "name": "_f_name",
          "type": "string"
        },
        {
          "name": "_l_name",
          "type": "string"
        },
        {
          "name": "_email",
          "type": "string"
        },
        {
          "name": "_NHSNum",
          "type": "uint256"
        }
      ],
      "name": "createID",
      "outputs": [
        {
          "name": "outputmessage",
          "type": "string"
        }
      ],
      "payable": false,
      "stateMutability": "nonpayable",
      "type": "function"
    },
    {
      "constant": true,
      "inputs": [],
      "name": "userExists",
      "outputs": [
        {
          "name": "themsg",
          "type": "uint256"
        }
      ],
      "payable": false,
      "stateMutability": "view",
      "type": "function"
    },
    {
      "constant": true,
      "inputs": [],
      "name": "myadd",
      "outputs": [
        {
          "name": "",
          "type": "address"
        }
      ],
      "payable": false,
      "stateMutability": "view",
      "type": "function"
    },
    {
      "constant": true,
      "inputs": [],
      "name": "id",
      "outputs": [
        {
          "name": "",
          "type": "address"
        }
      ],
      "payable": false,
      "stateMutability": "view",
      "type": "function"
    },
    {
      "constant": true,
      "inputs": [],
      "name": "returnID",
      "outputs": [
        {
          "name": "omneeIDC",
          "type": "address"
        },
        {
          "name": "theMsg",
          "type": "string"
        }
      ],
      "payable": false,
      "stateMutability": "view",
      "type": "function"
    }
  ],
  "bytecode": "0x60606040526000600255341561001457600080fd5b611723806100236000396000f300606060405260043610610083576000357c0100000000000000000000000000000000000000000000000000000000900463ffffffff1680630ad4c4ff14610088578063489ea320146100dd57806348abfaaf146101565780635c3581af146101ab578063af640d0f1461026c578063eae6d4da146102c1578063fca17786146102ea575b600080fd5b341561009357600080fd5b61009b610458565b604051808273ffffffffffffffffffffffffffffffffffffffff1673ffffffffffffffffffffffffffffffffffffffff16815260200191505060405180910390f35b34156100e857600080fd5b610114600480803573ffffffffffffffffffffffffffffffffffffffff16906020019091905050610465565b604051808273ffffffffffffffffffffffffffffffffffffffff1673ffffffffffffffffffffffffffffffffffffffff16815260200191505060405180910390f35b341561016157600080fd5b610169610498565b604051808273ffffffffffffffffffffffffffffffffffffffff1673ffffffffffffffffffffffffffffffffffffffff16815260200191505060405180910390f35b34156101b657600080fd5b6101be6104be565b604051808373ffffffffffffffffffffffffffffffffffffffff1673ffffffffffffffffffffffffffffffffffffffff16815260200180602001828103825283818151815260200191508051906020019080838360005b83811015610230578082015181840152602081019050610215565b50505050905090810190601f16801561025d5780820380516001836020036101000a031916815260200191505b50935050505060405180910390f35b341561027757600080fd5b61027f610624565b604051808273ffffffffffffffffffffffffffffffffffffffff1673ffffffffffffffffffffffffffffffffffffffff16815260200191505060405180910390f35b34156102cc57600080fd5b6102d461068a565b6040518082815260200191505060405180910390f35b34156102f557600080fd5b6103dd600480803590602001909190803590602001908201803590602001908080601f0160208091040260200160405190810160405280939291908181526020018383808284378201915050505050509190803590602001908201803590602001908080601f0160208091040260200160405190810160405280939291908181526020018383808284378201915050505050509190803590602001908201803590602001908080601f01602080910402602001604051908101604052809392919081815260200183838082843782019150505050505091908035906020019091905050610719565b6040518080602001828103825283818151815260200191508051906020019080838360005b8381101561041d578082015181840152602081019050610402565b50505050905090810190601f16801561044a5780820380516001836020036101000a031916815260200191505b509250505060405180910390f35b6000803390508091505090565b60006020528060005260406000206000915054906101000a900473ffffffffffffffffffffffffffffffffffffffff1681565b600160009054906101000a900473ffffffffffffffffffffffffffffffffffffffff1681565b60006104c8610aea565b60008060003373ffffffffffffffffffffffffffffffffffffffff1673ffffffffffffffffffffffffffffffffffffffff16815260200190815260200160002060009054906101000a900473ffffffffffffffffffffffffffffffffffffffff1673ffffffffffffffffffffffffffffffffffffffff16141561058657600091506040805190810160405280600f81526020017f6e6f20696420746f2072657475726e00000000000000000000000000000000008152509050610620565b6000803373ffffffffffffffffffffffffffffffffffffffff1673ffffffffffffffffffffffffffffffffffffffff16815260200190815260200160002060009054906101000a900473ffffffffffffffffffffffffffffffffffffffff1691506040805190810160405280600681526020017f776173736170000000000000000000000000000000000000000000000000000081525090505b9091565b60008060003373ffffffffffffffffffffffffffffffffffffffff1673ffffffffffffffffffffffffffffffffffffffff16815260200190815260200160002060009054906101000a900473ffffffffffffffffffffffffffffffffffffffff16905090565b6000806000803373ffffffffffffffffffffffffffffffffffffffff1673ffffffffffffffffffffffffffffffffffffffff16815260200190815260200160002060009054906101000a900473ffffffffffffffffffffffffffffffffffffffff1673ffffffffffffffffffffffffffffffffffffffff1614156107115760019050610716565b600290505b90565b610721610aea565b6000806000803373ffffffffffffffffffffffffffffffffffffffff1673ffffffffffffffffffffffffffffffffffffffff16815260200190815260200160002060009054906101000a900473ffffffffffffffffffffffffffffffffffffffff1673ffffffffffffffffffffffffffffffffffffffff161415610a0857600186868686336107ae610afe565b808781526020018060200180602001806020018681526020018573ffffffffffffffffffffffffffffffffffffffff1673ffffffffffffffffffffffffffffffffffffffff168152602001848103845289818151815260200191508051906020019080838360005b83811015610831578082015181840152602081019050610816565b50505050905090810190601f16801561085e5780820380516001836020036101000a031916815260200191505b50848103835288818151815260200191508051906020019080838360005b8381101561089757808201518184015260208101905061087c565b50505050905090810190601f1680156108c45780820380516001836020036101000a031916815260200191505b50848103825287818151815260200191508051906020019080838360005b838110156108fd5780820151818401526020810190506108e2565b50505050905090810190601f16801561092a5780820380516001836020036101000a031916815260200191505b509950505050505050505050604051809103906000f080151561094c57600080fd5b9050806000803373ffffffffffffffffffffffffffffffffffffffff1673ffffffffffffffffffffffffffffffffffffffff16815260200190815260200160002060006101000a81548173ffffffffffffffffffffffffffffffffffffffff021916908373ffffffffffffffffffffffffffffffffffffffff1602179055506040805190810160405280601281526020017f4e657720494420776173206372656174656400000000000000000000000000008152509150610a41565b6040805190810160405280601181526020017f494420616c72656164792065786973747300000000000000000000000000000081525091505b6000803373ffffffffffffffffffffffffffffffffffffffff1673ffffffffffffffffffffffffffffffffffffffff16815260200190815260200160002060009054906101000a900473ffffffffffffffffffffffffffffffffffffffff16600160006101000a81548173ffffffffffffffffffffffffffffffffffffffff021916908373ffffffffffffffffffffffffffffffffffffffff1602179055505095945050505050565b602060405190810160405280600081525090565b604051610be980610b0f8339019056006060604052341561000f57600080fd5b604051610be9380380610be983398101604052808051906020019091908051820191906020018051820191906020018051820191906020018051906020019091908051906020019091905050856000800181905550846000600101908051906020019061007d92919061014c565b50836000600201908051906020019061009792919061014c565b5082600060030190805190602001906100b192919061014c565b508160006004018190555080600060050160006101000a81548173ffffffffffffffffffffffffffffffffffffffff021916908373ffffffffffffffffffffffffffffffffffffffff16021790555033600a60006101000a81548173ffffffffffffffffffffffffffffffffffffffff021916908373ffffffffffffffffffffffffffffffffffffffff1602179055505050505050506101f1565b828054600181600116156101000203166002900490600052602060002090601f016020900481019282601f1061018d57805160ff19168380011785556101bb565b828001600101855582156101bb579182015b828111156101ba57825182559160200191906001019061019f565b5b5090506101c891906101cc565b5090565b6101ee91905b808211156101ea5760008160009055506001016101d2565b5090565b90565b6109e9806102006000396000f30060606040526004361061006d576000357c0100000000000000000000000000000000000000000000000000000000900463ffffffff16806317d7de7c1461007257806336affb46146101005780635a9b0b891461018e5780638da5cb5b1461032e578063a0829e5714610383575b600080fd5b341561007d57600080fd5b610085610466565b6040518080602001828103825283818151815260200191508051906020019080838360005b838110156100c55780820151818401526020810190506100aa565b50505050905090810190601f1680156100f25780820380516001836020036101000a031916815260200191505b509250505060405180910390f35b341561010b57600080fd5b610113610511565b6040518080602001828103825283818151815260200191508051906020019080838360005b83811015610153578082015181840152602081019050610138565b50505050905090810190601f1680156101805780820380516001836020036101000a031916815260200191505b509250505060405180910390f35b341561019957600080fd5b6101a1610650565b604051808060200180602001806020018681526020018573ffffffffffffffffffffffffffffffffffffffff1673ffffffffffffffffffffffffffffffffffffffff168152602001848103845289818151815260200191508051906020019080838360005b83811015610221578082015181840152602081019050610206565b50505050905090810190601f16801561024e5780820380516001836020036101000a031916815260200191505b50848103835288818151815260200191508051906020019080838360005b8381101561028757808201518184015260208101905061026c565b50505050905090810190601f1680156102b45780820380516001836020036101000a031916815260200191505b50848103825287818151815260200191508051906020019080838360005b838110156102ed5780820151818401526020810190506102d2565b50505050905090810190601f16801561031a5780820380516001836020036101000a031916815260200191505b509850505050505050505060405180910390f35b341561033957600080fd5b61034161088b565b604051808273ffffffffffffffffffffffffffffffffffffffff1673ffffffffffffffffffffffffffffffffffffffff16815260200191505060405180910390f35b341561038e57600080fd5b610464600480803590602001908201803590602001908080601f0160208091040260200160405190810160405280939291908181526020018383808284378201915050505050509190803590602001908201803590602001908080601f0160208091040260200160405190810160405280939291908181526020018383808284378201915050505050509190803590602001908201803590602001908080601f016020809104026020016040519081016040528093929190818152602001838380828437820191505050505050919050506108b1565b005b61046e610904565b60006001018054600181600116156101000203166002900480601f0160208091040260200160405190810160405280929190818152602001828054600181600116156101000203166002900480156105075780601f106104dc57610100808354040283529160200191610507565b820191906000526020600020905b8154815290600101906020018083116104ea57829003601f168201915b5050505050905090565b610519610904565b600a60009054906101000a900473ffffffffffffffffffffffffffffffffffffffff1673ffffffffffffffffffffffffffffffffffffffff163373ffffffffffffffffffffffffffffffffffffffff1614156105ac576040805190810160405280600b81526020017f68656c6c6f20776f726c64000000000000000000000000000000000000000000815250905061064d565b60006001018054600181600116156101000203166002900480601f0160208091040260200160405190810160405280929190818152602001828054600181600116156101000203166002900480156106455780601f1061061a57610100808354040283529160200191610645565b820191906000526020600020905b81548152906001019060200180831161062857829003601f168201915b505050505090505b90565b610658610904565b610660610904565b610668610904565b600080600060010160006002016000600301600060040154600060050160009054906101000a900473ffffffffffffffffffffffffffffffffffffffff16848054600181600116156101000203166002900480601f01602080910402602001604051908101604052809291908181526020018280546001816001161561010002031660029004801561073b5780601f106107105761010080835404028352916020019161073b565b820191906000526020600020905b81548152906001019060200180831161071e57829003601f168201915b50505050509450838054600181600116156101000203166002900480601f0160208091040260200160405190810160405280929190818152602001828054600181600116156101000203166002900480156107d75780601f106107ac576101008083540402835291602001916107d7565b820191906000526020600020905b8154815290600101906020018083116107ba57829003601f168201915b50505050509350828054600181600116156101000203166002900480601f0160208091040260200160405190810160405280929190818152602001828054600181600116156101000203166002900480156108735780601f1061084857610100808354040283529160200191610873565b820191906000526020600020905b81548152906001019060200180831161085657829003601f168201915b50505050509250945094509450945094509091929394565b600a60009054906101000a900473ffffffffffffffffffffffffffffffffffffffff1681565b82600660000190805190602001906108ca929190610918565b5081600660010190805190602001906108e4929190610918565b5080600660030190805190602001906108fe929190610918565b50505050565b602060405190810160405280600081525090565b828054600181600116156101000203166002900490600052602060002090601f016020900481019282601f1061095957805160ff1916838001178555610987565b82800160010185558215610987579182015b8281111561098657825182559160200191906001019061096b565b5b5090506109949190610998565b5090565b6109ba91905b808211156109b657600081600090555060010161099e565b5090565b905600a165627a7a72305820ef24e7f03029b94b75ed5091fd6fe9f602d8711d40dbc4880a77b3a720946e500029a165627a7a7230582043106965b9c5300531e13de16b8b1558b56ddabb0023013c2176993e8b72cac70029",
  "source": "pragma solidity ^0.4.6;\nimport \"./omneeID.sol\";\n\ncontract omneePortal {\n    mapping (address => address) public directory;\n    address public usersOmneeID;\n    \n    // Create a new identity\n    function createID(uint _entity_type, string _f_name, \n                        string _l_name, string _email, uint _NHSNum) public returns(string outputmessage) {\n        if (directory[msg.sender] == 0) {\n            address newID = new omneeID(1, _f_name, _l_name, _email, _NHSNum, msg.sender);\n            directory[msg.sender] = newID;\n            outputmessage = \"New ID was created\";\n            // we have created an ID\n        } else {\n            // identity already exists, so lets login\n            outputmessage = \"ID already exists\";\n        }\n        usersOmneeID = directory[msg.sender];\n    }\n\n    uint themsg = 0;\n    function userExists() public view returns(uint themsg){\n        if (directory[msg.sender] == 0) {\n            // user doesnt exist\n            themsg = 1;\n        } else {\n            // user exists\n            themsg = 2;\n        }\n    }\n\n    function myadd() public constant returns(address) {\n        address myadd = msg.sender;\n        return myadd;\n    }\n\n    function id() constant returns(address) {\n        return directory[msg.sender];\n    }\n\n    // Returns the users contract address\n    function returnID() public constant returns(address omneeIDC, string theMsg) {\n        if (directory[msg.sender] == 0) {\n            // no ID here to return\n            omneeIDC = 0;\n            theMsg = \"no id to return\";\n        } else {\n            omneeIDC = directory[msg.sender];\n            theMsg = \"wassap\";\n        }\n    }\n}",
  "sourcePath": "/Library/WebServer/Documents/omnee/DataBankingReact/contracts/omneePortal.sol",
  "compiler": {
    "name": "solc",
    "version": "0.4.19+commit.c4cbbb05.Emscripten.clang"
  },
  "schemaVersion": "1.0.1",
  "updatedAt": "2018-08-02T16:54:16.909Z"
}