{
  "contractName": "omneeID",
  "abi": [
    {
      "constant": true,
      "inputs": [],
      "name": "owner",
      "outputs": [
        {
          "name": "",
          "type": "address"
        }
      ],
      "payable": false,
      "stateMutability": "view",
      "type": "function"
    },
    {
      "inputs": [
        {
          "name": "_entity_type",
          "type": "uint256"
        },
        {
          "name": "_f_name",
          "type": "string"
        },
        {
          "name": "_l_name",
          "type": "string"
        },
        {
          "name": "_email",
          "type": "string"
        },
        {
          "name": "_senderAddress",
          "type": "address"
        }
      ],
      "payable": false,
      "stateMutability": "nonpayable",
      "type": "constructor"
    },
    {
      "constant": true,
      "inputs": [],
      "name": "changeInfo",
      "outputs": [
        {
          "name": "",
          "type": "string"
        }
      ],
      "payable": false,
      "stateMutability": "view",
      "type": "function"
    },
    {
      "constant": true,
      "inputs": [],
      "name": "getName",
      "outputs": [
        {
          "name": "_f_name",
          "type": "string"
        }
      ],
      "payable": false,
      "stateMutability": "view",
      "type": "function"
    },
    {
      "constant": true,
      "inputs": [],
      "name": "getInfo",
      "outputs": [
        {
          "name": "name_",
          "type": "string"
        },
        {
          "name": "lastname_",
          "type": "string"
        },
        {
          "name": "email_",
          "type": "string"
        },
        {
          "name": "_owner",
          "type": "address"
        }
      ],
      "payable": false,
      "stateMutability": "view",
      "type": "function"
    }
  ],
  "bytecode": "0x6060604052341561000f57600080fd5b6040516109dd3803806109dd833981016040528080519060200190919080518201919060200180518201919060200180518201919060200180519060200190919050508460008001819055508360006001019080519060200190610074929190610138565b50826000600201908051906020019061008e929190610138565b5081600060030190805190602001906100a8929190610138565b5080600060050160006101000a81548173ffffffffffffffffffffffffffffffffffffffff021916908373ffffffffffffffffffffffffffffffffffffffff16021790555033600660006101000a81548173ffffffffffffffffffffffffffffffffffffffff021916908373ffffffffffffffffffffffffffffffffffffffff16021790555050505050506101dd565b828054600181600116156101000203166002900490600052602060002090601f016020900481019282601f1061017957805160ff19168380011785556101a7565b828001600101855582156101a7579182015b828111156101a657825182559160200191906001019061018b565b5b5090506101b491906101b8565b5090565b6101da91905b808211156101d65760008160009055506001016101be565b5090565b90565b6107f1806101ec6000396000f300606060405260043610610062576000357c0100000000000000000000000000000000000000000000000000000000900463ffffffff16806317d7de7c1461006757806336affb46146100f55780635a9b0b89146101835780638da5cb5b1461031c575b600080fd5b341561007257600080fd5b61007a610371565b6040518080602001828103825283818151815260200191508051906020019080838360005b838110156100ba57808201518184015260208101905061009f565b50505050905090810190601f1680156100e75780820380516001836020036101000a031916815260200191505b509250505060405180910390f35b341561010057600080fd5b61010861041c565b6040518080602001828103825283818151815260200191508051906020019080838360005b8381101561014857808201518184015260208101905061012d565b50505050905090810190601f1680156101755780820380516001836020036101000a031916815260200191505b509250505060405180910390f35b341561018e57600080fd5b61019661055b565b604051808060200180602001806020018573ffffffffffffffffffffffffffffffffffffffff1673ffffffffffffffffffffffffffffffffffffffff168152602001848103845288818151815260200191508051906020019080838360005b838110156102105780820151818401526020810190506101f5565b50505050905090810190601f16801561023d5780820380516001836020036101000a031916815260200191505b50848103835287818151815260200191508051906020019080838360005b8381101561027657808201518184015260208101905061025b565b50505050905090810190601f1680156102a35780820380516001836020036101000a031916815260200191505b50848103825286818151815260200191508051906020019080838360005b838110156102dc5780820151818401526020810190506102c1565b50505050905090810190601f1680156103095780820380516001836020036101000a031916815260200191505b5097505050505050505060405180910390f35b341561032757600080fd5b61032f61078b565b604051808273ffffffffffffffffffffffffffffffffffffffff1673ffffffffffffffffffffffffffffffffffffffff16815260200191505060405180910390f35b6103796107b1565b60006001018054600181600116156101000203166002900480601f0160208091040260200160405190810160405280929190818152602001828054600181600116156101000203166002900480156104125780601f106103e757610100808354040283529160200191610412565b820191906000526020600020905b8154815290600101906020018083116103f557829003601f168201915b5050505050905090565b6104246107b1565b600660009054906101000a900473ffffffffffffffffffffffffffffffffffffffff1673ffffffffffffffffffffffffffffffffffffffff163373ffffffffffffffffffffffffffffffffffffffff1614156104b7576040805190810160405280600b81526020017f68656c6c6f20776f726c640000000000000000000000000000000000000000008152509050610558565b60006001018054600181600116156101000203166002900480601f0160208091040260200160405190810160405280929190818152602001828054600181600116156101000203166002900480156105505780601f1061052557610100808354040283529160200191610550565b820191906000526020600020905b81548152906001019060200180831161053357829003601f168201915b505050505090505b90565b6105636107b1565b61056b6107b1565b6105736107b1565b60008060010160006002016000600301600060050160009054906101000a900473ffffffffffffffffffffffffffffffffffffffff16838054600181600116156101000203166002900480601f01602080910402602001604051908101604052809291908181526020018280546001816001161561010002031660029004801561063e5780601f106106135761010080835404028352916020019161063e565b820191906000526020600020905b81548152906001019060200180831161062157829003601f168201915b50505050509350828054600181600116156101000203166002900480601f0160208091040260200160405190810160405280929190818152602001828054600181600116156101000203166002900480156106da5780601f106106af576101008083540402835291602001916106da565b820191906000526020600020905b8154815290600101906020018083116106bd57829003601f168201915b50505050509250818054600181600116156101000203166002900480601f0160208091040260200160405190810160405280929190818152602001828054600181600116156101000203166002900480156107765780601f1061074b57610100808354040283529160200191610776565b820191906000526020600020905b81548152906001019060200180831161075957829003601f168201915b50505050509150935093509350935090919293565b600660009054906101000a900473ffffffffffffffffffffffffffffffffffffffff1681565b6020604051908101604052806000815250905600a165627a7a72305820cb191080de1ae00dac104f633f2a5d3bf07aae1047ea804f1a3e5e25f2a161300029",
  "source": "pragma solidity ^0.4.6;\n\ncontract omneeID {\n\n    struct omneeInfo {\n        uint entityType;\n        string firstname;\n        string lastname;\n        string email;\n        string phoneNum;\n        address owner;\n    }\n\n    omneeInfo theUser;\n    address public owner;\n\n    // Constructor\n    function omneeID(uint _entity_type, string _f_name, string _l_name, string _email, address _senderAddress) public {\n        // We should have a if statement and using oraclise we connect to.\n        // a server with the original omneePortal address.\n        // so that we only create this contract if it is created by it.\n\n        theUser.entityType = _entity_type;\n        theUser.firstname = _f_name;\n        theUser.lastname = _l_name;\n        theUser.email = _email;\n        theUser.owner = _senderAddress;\n        owner = msg.sender;\n    }\n\n    // function to make changes to users primary information\n    function changeInfo() constant returns(string) {\n        // Only the creator can alter the name --\n        // the comparison is possible since contracts\n        // are implicitly convertible to addresses.\n        if (msg.sender == address(owner)) {\n            return \"hello world\";\n        } else {\n            return theUser.firstname;\n        }\n    }\n\n    function getName() public constant returns(string _f_name) {\n        return theUser.firstname;\n    }\n\n    function getInfo() public constant returns(string name_, string lastname_, string email_, address _owner) {\n        return (theUser.firstname, theUser.lastname, theUser.email, theUser.owner);\n    }\n}\n",
  "sourcePath": "/Library/WebServer/Documents/DataBankingReact/contracts/omneeID.sol",
  "compiler": {
    "name": "solc",
    "version": "0.4.19+commit.c4cbbb05.Emscripten.clang"
  },
  "schemaVersion": "1.0.1",
  "updatedAt": "2018-03-08T01:11:35.972Z"
}