{
  "contractName": "omneePortal",
  "abi": [
    {
      "constant": true,
      "inputs": [
        {
          "name": "",
          "type": "address"
        }
      ],
      "name": "directory",
      "outputs": [
        {
          "name": "",
          "type": "address"
        }
      ],
      "payable": false,
      "stateMutability": "view",
      "type": "function"
    },
    {
      "constant": true,
      "inputs": [],
      "name": "usersOmneeID",
      "outputs": [
        {
          "name": "",
          "type": "address"
        }
      ],
      "payable": false,
      "stateMutability": "view",
      "type": "function"
    },
    {
      "constant": false,
      "inputs": [
        {
          "name": "_entity_type",
          "type": "uint256"
        },
        {
          "name": "_f_name",
          "type": "string"
        },
        {
          "name": "_l_name",
          "type": "string"
        },
        {
          "name": "_email",
          "type": "string"
        }
      ],
      "name": "createID",
      "outputs": [
        {
          "name": "outputmessage",
          "type": "string"
        }
      ],
      "payable": false,
      "stateMutability": "nonpayable",
      "type": "function"
    },
    {
      "constant": true,
      "inputs": [],
      "name": "userExists",
      "outputs": [
        {
          "name": "themsg",
          "type": "uint256"
        }
      ],
      "payable": false,
      "stateMutability": "view",
      "type": "function"
    },
    {
      "constant": true,
      "inputs": [],
      "name": "myadd",
      "outputs": [
        {
          "name": "",
          "type": "address"
        }
      ],
      "payable": false,
      "stateMutability": "view",
      "type": "function"
    },
    {
      "constant": true,
      "inputs": [],
      "name": "id",
      "outputs": [
        {
          "name": "",
          "type": "address"
        }
      ],
      "payable": false,
      "stateMutability": "view",
      "type": "function"
    },
    {
      "constant": true,
      "inputs": [],
      "name": "returnID",
      "outputs": [
        {
          "name": "omneeIDC",
          "type": "address"
        },
        {
          "name": "themsg",
          "type": "string"
        }
      ],
      "payable": false,
      "stateMutability": "view",
      "type": "function"
    }
  ],
  "bytecode": "0x60606040526000600255341561001457600080fd5b6115ee806100236000396000f300606060405260043610610083576000357c0100000000000000000000000000000000000000000000000000000000900463ffffffff1680630ad4c4ff14610088578063489ea320146100dd57806348abfaaf146101565780635c3581af146101ab578063af640d0f1461026c578063b1c95d52146102c1578063eae6d4da14610426575b600080fd5b341561009357600080fd5b61009b61044f565b604051808273ffffffffffffffffffffffffffffffffffffffff1673ffffffffffffffffffffffffffffffffffffffff16815260200191505060405180910390f35b34156100e857600080fd5b610114600480803573ffffffffffffffffffffffffffffffffffffffff1690602001909190505061045c565b604051808273ffffffffffffffffffffffffffffffffffffffff1673ffffffffffffffffffffffffffffffffffffffff16815260200191505060405180910390f35b341561016157600080fd5b61016961048f565b604051808273ffffffffffffffffffffffffffffffffffffffff1673ffffffffffffffffffffffffffffffffffffffff16815260200191505060405180910390f35b34156101b657600080fd5b6101be6104b5565b604051808373ffffffffffffffffffffffffffffffffffffffff1673ffffffffffffffffffffffffffffffffffffffff16815260200180602001828103825283818151815260200191508051906020019080838360005b83811015610230578082015181840152602081019050610215565b50505050905090810190601f16801561025d5780820380516001836020036101000a031916815260200191505b50935050505060405180910390f35b341561027757600080fd5b61027f61061b565b604051808273ffffffffffffffffffffffffffffffffffffffff1673ffffffffffffffffffffffffffffffffffffffff16815260200191505060405180910390f35b34156102cc57600080fd5b6103ab600480803590602001909190803590602001908201803590602001908080601f0160208091040260200160405190810160405280939291908181526020018383808284378201915050505050509190803590602001908201803590602001908080601f0160208091040260200160405190810160405280939291908181526020018383808284378201915050505050509190803590602001908201803590602001908080601f01602080910402602001604051908101604052809392919081815260200183838082843782019150505050505091905050610681565b6040518080602001828103825283818151815260200191508051906020019080838360005b838110156103eb5780820151818401526020810190506103d0565b50505050905090810190601f1680156104185780820380516001836020036101000a031916815260200191505b509250505060405180910390f35b341561043157600080fd5b610439610a15565b6040518082815260200191505060405180910390f35b6000803390508091505090565b60006020528060005260406000206000915054906101000a900473ffffffffffffffffffffffffffffffffffffffff1681565b600160009054906101000a900473ffffffffffffffffffffffffffffffffffffffff1681565b60006104bf610aa4565b60008060003373ffffffffffffffffffffffffffffffffffffffff1673ffffffffffffffffffffffffffffffffffffffff16815260200190815260200160002060009054906101000a900473ffffffffffffffffffffffffffffffffffffffff1673ffffffffffffffffffffffffffffffffffffffff16141561057d57600091506040805190810160405280600f81526020017f6e6f20696420746f2072657475726e00000000000000000000000000000000008152509050610617565b6000803373ffffffffffffffffffffffffffffffffffffffff1673ffffffffffffffffffffffffffffffffffffffff16815260200190815260200160002060009054906101000a900473ffffffffffffffffffffffffffffffffffffffff1691506040805190810160405280600681526020017f776173736170000000000000000000000000000000000000000000000000000081525090505b9091565b60008060003373ffffffffffffffffffffffffffffffffffffffff1673ffffffffffffffffffffffffffffffffffffffff16815260200190815260200160002060009054906101000a900473ffffffffffffffffffffffffffffffffffffffff16905090565b610689610aa4565b6000806000803373ffffffffffffffffffffffffffffffffffffffff1673ffffffffffffffffffffffffffffffffffffffff16815260200190815260200160002060009054906101000a900473ffffffffffffffffffffffffffffffffffffffff1673ffffffffffffffffffffffffffffffffffffffff161415610934576001858585610714610ab8565b80858152602001806020018060200180602001848103845287818151815260200191508051906020019080838360005b8381101561075f578082015181840152602081019050610744565b50505050905090810190601f16801561078c5780820380516001836020036101000a031916815260200191505b50848103835286818151815260200191508051906020019080838360005b838110156107c55780820151818401526020810190506107aa565b50505050905090810190601f1680156107f25780820380516001836020036101000a031916815260200191505b50848103825285818151815260200191508051906020019080838360005b8381101561082b578082015181840152602081019050610810565b50505050905090810190601f1680156108585780820380516001836020036101000a031916815260200191505b50975050505050505050604051809103906000f080151561087857600080fd5b9050806000803373ffffffffffffffffffffffffffffffffffffffff1673ffffffffffffffffffffffffffffffffffffffff16815260200190815260200160002060006101000a81548173ffffffffffffffffffffffffffffffffffffffff021916908373ffffffffffffffffffffffffffffffffffffffff1602179055506040805190810160405280601281526020017f4e65772049442077617320637265617465640000000000000000000000000000815250915061096d565b6040805190810160405280601181526020017f494420616c72656164792065786973747300000000000000000000000000000081525091505b6000803373ffffffffffffffffffffffffffffffffffffffff1673ffffffffffffffffffffffffffffffffffffffff16815260200190815260200160002060009054906101000a900473ffffffffffffffffffffffffffffffffffffffff16600160006101000a81548173ffffffffffffffffffffffffffffffffffffffff021916908373ffffffffffffffffffffffffffffffffffffffff16021790555050949350505050565b6000806000803373ffffffffffffffffffffffffffffffffffffffff1673ffffffffffffffffffffffffffffffffffffffff16815260200190815260200160002060009054906101000a900473ffffffffffffffffffffffffffffffffffffffff1673ffffffffffffffffffffffffffffffffffffffff161415610a9c5760019050610aa1565b600290505b90565b602060405190810160405280600081525090565b604051610afa80610ac98339019056006060604052341561000f57600080fd5b604051610afa380380610afa8339810160405280805190602001909190805182019190602001805182019190602001805182019190505083600080018190555082600060010190805190602001906100689291906100e7565b5081600060020190805190602001906100829291906100e7565b50806000600301908051906020019061009c9291906100e7565b5033600460006101000a81548173ffffffffffffffffffffffffffffffffffffffff021916908373ffffffffffffffffffffffffffffffffffffffff1602179055505050505061018c565b828054600181600116156101000203166002900490600052602060002090601f016020900481019282601f1061012857805160ff1916838001178555610156565b82800160010185558215610156579182015b8281111561015557825182559160200191906001019061013a565b5b5090506101639190610167565b5090565b61018991905b8082111561018557600081600090555060010161016d565b5090565b90565b61095f8061019b6000396000f300606060405260043610610083576000357c0100000000000000000000000000000000000000000000000000000000900463ffffffff16806317d7de7c1461008857806319ff1d211461011657806336affb46146101a45780635a9b0b89146102325780638da5cb5b146103985780639ee1bd0f146103ed578063b07d7e3914610442575b600080fd5b341561009357600080fd5b61009b6104b7565b6040518080602001828103825283818151815260200191508051906020019080838360005b838110156100db5780820151818401526020810190506100c0565b50505050905090810190601f1680156101085780820380516001836020036101000a031916815260200191505b509250505060405180910390f35b341561012157600080fd5b610129610562565b6040518080602001828103825283818151815260200191508051906020019080838360005b8381101561016957808201518184015260208101905061014e565b50505050905090810190601f1680156101965780820380516001836020036101000a031916815260200191505b509250505060405180910390f35b34156101af57600080fd5b6101b76105a5565b6040518080602001828103825283818151815260200191508051906020019080838360005b838110156101f75780820151818401526020810190506101dc565b50505050905090810190601f1680156102245780820380516001836020036101000a031916815260200191505b509250505060405180910390f35b341561023d57600080fd5b6102456106e4565b60405180806020018060200180602001848103845287818151815260200191508051906020019080838360005b8381101561028d578082015181840152602081019050610272565b50505050905090810190601f1680156102ba5780820380516001836020036101000a031916815260200191505b50848103835286818151815260200191508051906020019080838360005b838110156102f35780820151818401526020810190506102d8565b50505050905090810190601f1680156103205780820380516001836020036101000a031916815260200191505b50848103825285818151815260200191508051906020019080838360005b8381101561035957808201518184015260208101905061033e565b50505050905090810190601f1680156103865780820380516001836020036101000a031916815260200191505b50965050505050505060405180910390f35b34156103a357600080fd5b6103ab6108ea565b604051808273ffffffffffffffffffffffffffffffffffffffff1673ffffffffffffffffffffffffffffffffffffffff16815260200191505060405180910390f35b34156103f857600080fd5b610400610910565b604051808273ffffffffffffffffffffffffffffffffffffffff1673ffffffffffffffffffffffffffffffffffffffff16815260200191505060405180910390f35b341561044d57600080fd5b61049d600480803590602001908201803590602001908080601f01602080910402602001604051908101604052809392919081815260200183838082843782019150505050505091905050610918565b604051808215151515815260200191505060405180910390f35b6104bf61091f565b60006001018054600181600116156101000203166002900480601f0160208091040260200160405190810160405280929190818152602001828054600181600116156101000203166002900480156105585780601f1061052d57610100808354040283529160200191610558565b820191906000526020600020905b81548152906001019060200180831161053b57829003601f168201915b5050505050905090565b61056a61091f565b6040805190810160405280600b81526020017f68656c6c6f20776f726c64000000000000000000000000000000000000000000815250905090565b6105ad61091f565b600460009054906101000a900473ffffffffffffffffffffffffffffffffffffffff1673ffffffffffffffffffffffffffffffffffffffff163373ffffffffffffffffffffffffffffffffffffffff161415610640576040805190810160405280600b81526020017f68656c6c6f20776f726c6400000000000000000000000000000000000000000081525090506106e1565b60006001018054600181600116156101000203166002900480601f0160208091040260200160405190810160405280929190818152602001828054600181600116156101000203166002900480156106d95780601f106106ae576101008083540402835291602001916106d9565b820191906000526020600020905b8154815290600101906020018083116106bc57829003601f168201915b505050505090505b90565b6106ec61091f565b6106f461091f565b6106fc61091f565b600060010160006002016000600301828054600181600116156101000203166002900480601f0160208091040260200160405190810160405280929190818152602001828054600181600116156101000203166002900480156107a05780601f10610775576101008083540402835291602001916107a0565b820191906000526020600020905b81548152906001019060200180831161078357829003601f168201915b50505050509250818054600181600116156101000203166002900480601f01602080910402602001604051908101604052809291908181526020018280546001816001161561010002031660029004801561083c5780601f106108115761010080835404028352916020019161083c565b820191906000526020600020905b81548152906001019060200180831161081f57829003601f168201915b50505050509150808054600181600116156101000203166002900480601f0160208091040260200160405190810160405280929190818152602001828054600181600116156101000203166002900480156108d85780601f106108ad576101008083540402835291602001916108d8565b820191906000526020600020905b8154815290600101906020018083116108bb57829003601f168201915b50505050509050925092509250909192565b600460009054906101000a900473ffffffffffffffffffffffffffffffffffffffff1681565b600080905090565b6000919050565b6020604051908101604052806000815250905600a165627a7a72305820d5bd44ca6338dc6fd719c934c89f06a436a68f60a612b4be0c4580b708e307570029a165627a7a723058207efa34c535332df53e543e825956451187637c8f80789160a30500993e25e0780029",
  "source": "pragma solidity ^0.4.6;\nimport \"./omneeID.sol\";\n\ncontract omneePortal {\n    mapping (address => address) public directory;\n    address public usersOmneeID;\n    \n    // Create a new identity\n    function createID(uint _entity_type, string _f_name, \n                        string _l_name, string _email) public returns(string outputmessage) {\n        if(directory[msg.sender] == 0) {\n            address newID = new omneeID(1, _f_name, _l_name, _email);\n            directory[msg.sender] = newID;\n            outputmessage = \"New ID was created\";\n            // we have created an ID\n        } else {\n            // identity already exists, so lets login\n            outputmessage = \"ID already exists\";\n        }\n        usersOmneeID = directory[msg.sender];\n    }\n\n    uint themsg = 0;\n    function userExists() constant returns(uint themsg){\n        if(directory[msg.sender] == 0) {\n            // user doesnt exist\n            themsg = 1;\n        } else {\n            // user exists\n            themsg = 2;\n        }\n    }\n\n    function myadd() constant returns(address) {\n        address myadd = msg.sender;\n        return myadd;\n    }\n\n    function id() constant returns(address) {\n        return directory[msg.sender];\n    }\n\n    // Returns the users contract address\n    function returnID() constant returns(address omneeIDC, string themsg) {\n        if(directory[msg.sender] == 0) {\n            // no ID here to return\n            omneeIDC = 0;\n            themsg = \"no id to return\";\n        } else {\n            omneeIDC = directory[msg.sender];\n            themsg = \"wassap\";\n        }\n    }\n}",
  "sourcePath": "/Library/WebServer/Documents/DataBankingReact/contracts/omneePortal.sol",
  "compiler": {
    "name": "solc",
    "version": "0.4.19+commit.c4cbbb05.Emscripten.clang"
  },
  "schemaVersion": "1.0.1",
  "updatedAt": "2018-02-26T15:12:56.133Z"
}