{
  "contractName": "omneeRegistry",
  "abi": [
    {
      "inputs": [],
      "payable": false,
      "stateMutability": "nonpayable",
      "type": "constructor"
    },
    {
      "constant": false,
      "inputs": [
        {
          "name": "_address",
          "type": "address"
        },
        {
          "name": "_URL",
          "type": "string"
        }
      ],
      "name": "createLink",
      "outputs": [],
      "payable": false,
      "stateMutability": "nonpayable",
      "type": "function"
    },
    {
      "constant": true,
      "inputs": [
        {
          "name": "_address",
          "type": "address"
        }
      ],
      "name": "getLink",
      "outputs": [
        {
          "name": "",
          "type": "string"
        },
        {
          "name": "",
          "type": "address"
        }
      ],
      "payable": false,
      "stateMutability": "view",
      "type": "function"
    },
    {
      "constant": true,
      "inputs": [],
      "name": "test",
      "outputs": [
        {
          "name": "",
          "type": "uint256"
        }
      ],
      "payable": false,
      "stateMutability": "view",
      "type": "function"
    }
  ],
  "bytecode": "0x6060604052341561000f57600080fd5b6104c98061001e6000396000f300606060405260043610610057576000357c0100000000000000000000000000000000000000000000000000000000900463ffffffff1680639d6abe4f1461005c578063a5eca91d14610141578063f8a8fd6d146101bd575b600080fd5b341561006757600080fd5b610093600480803573ffffffffffffffffffffffffffffffffffffffff169060200190919050506101e6565b60405180806020018373ffffffffffffffffffffffffffffffffffffffff1673ffffffffffffffffffffffffffffffffffffffff168152602001828103825284818151815260200191508051906020019080838360005b838110156101055780820151818401526020810190506100ea565b50505050905090810190601f1680156101325780820380516001836020036101000a031916815260200191505b50935050505060405180910390f35b341561014c57600080fd5b6101bb600480803573ffffffffffffffffffffffffffffffffffffffff1690602001909190803590602001908201803590602001908080601f01602080910402602001604051908101604052809392919081815260200183838082843782019150505050505091905050610338565b005b34156101c857600080fd5b6101d06103db565b6040518082815260200191505060405180910390f35b6101ee6103e4565b60008060008473ffffffffffffffffffffffffffffffffffffffff1673ffffffffffffffffffffffffffffffffffffffff1681526020019081526020016000206000016000808573ffffffffffffffffffffffffffffffffffffffff1673ffffffffffffffffffffffffffffffffffffffff16815260200190815260200160002060010160009054906101000a900473ffffffffffffffffffffffffffffffffffffffff16818054600181600116156101000203166002900480601f0160208091040260200160405190810160405280929190818152602001828054600181600116156101000203166002900480156103285780601f106102fd57610100808354040283529160200191610328565b820191906000526020600020905b81548152906001019060200180831161030b57829003601f168201915b5050505050915091509150915091565b60008060008473ffffffffffffffffffffffffffffffffffffffff1673ffffffffffffffffffffffffffffffffffffffff1681526020019081526020016000209050818160000190805190602001906103929291906103f8565b50338160010160006101000a81548173ffffffffffffffffffffffffffffffffffffffff021916908373ffffffffffffffffffffffffffffffffffffffff160217905550505050565b60006045905090565b602060405190810160405280600081525090565b828054600181600116156101000203166002900490600052602060002090601f016020900481019282601f1061043957805160ff1916838001178555610467565b82800160010185558215610467579182015b8281111561046657825182559160200191906001019061044b565b5b5090506104749190610478565b5090565b61049a91905b8082111561049657600081600090555060010161047e565b5090565b905600a165627a7a723058207e7e858e30110de35ad521550c87047795fd9bb2f5d43d464fbab517a8362f500029",
  "source": "pragma solidity ^0.4.6;\n\ncontract omneeRegistry {\n    \n    struct Registry {\n        string link;\n        address creator ;\n    }\n    \n    mapping (address => Registry) theLinks;\n    //address[] public instructorAccts;\n    \n    function omneeRegistry() {\n    }\n\n    function createLink(address _address, string _URL) public {\n        var link = theLinks[_address];\n        \n        link.link = _URL;\n        link.creator = msg.sender;\n        //instructorAccts.push(_address) -1;\n    }\n    \n    function getLink(address _address) constant public returns (string, address) {\n        return (theLinks[_address].link, theLinks[_address].creator);\n    }\n\n    function test() constant public returns(uint) {\n        return 69;\n    }\n}",
  "sourcePath": "/Library/WebServer/Documents/DataBankingReact/contracts/omneeRegistry.sol",
  "compiler": {
    "name": "solc",
    "version": "0.4.19+commit.c4cbbb05.Emscripten.clang"
  },
  "schemaVersion": "1.0.1",
  "updatedAt": "2018-02-26T15:12:56.135Z"
}