{
  "contractName": "omneeRegistry",
  "abi": [
    {
      "inputs": [],
      "payable": false,
      "stateMutability": "nonpayable",
      "type": "constructor"
    },
    {
      "constant": false,
      "inputs": [
        {
          "name": "_address",
          "type": "address"
        },
        {
          "name": "_URL",
          "type": "string"
        },
        {
          "name": "_title",
          "type": "string"
        }
      ],
      "name": "createLink",
      "outputs": [],
      "payable": false,
      "stateMutability": "nonpayable",
      "type": "function"
    },
    {
      "constant": false,
      "inputs": [
        {
          "name": "_url",
          "type": "string"
        },
        {
          "name": "_title",
          "type": "string"
        },
        {
          "name": "_omneeID",
          "type": "address"
        }
      ],
      "name": "newLink",
      "outputs": [],
      "payable": false,
      "stateMutability": "nonpayable",
      "type": "function"
    },
    {
      "constant": true,
      "inputs": [
        {
          "name": "_omneeID",
          "type": "address"
        },
        {
          "name": "_linkID",
          "type": "uint256"
        }
      ],
      "name": "getALink",
      "outputs": [
        {
          "name": "",
          "type": "string"
        },
        {
          "name": "",
          "type": "string"
        }
      ],
      "payable": false,
      "stateMutability": "view",
      "type": "function"
    },
    {
      "constant": true,
      "inputs": [
        {
          "name": "_address",
          "type": "address"
        }
      ],
      "name": "getLink",
      "outputs": [
        {
          "name": "",
          "type": "string"
        },
        {
          "name": "",
          "type": "address"
        },
        {
          "name": "",
          "type": "string"
        }
      ],
      "payable": false,
      "stateMutability": "view",
      "type": "function"
    }
  ],
  "bytecode": "0x6060604052341561000f57600080fd5b610c898061001e6000396000f300606060405260043610610062576000357c0100000000000000000000000000000000000000000000000000000000900463ffffffff1680630fe1404414610067578063181b3a4e1461012657806320c72bc11461024d5780639d6abe4f1461030c575b600080fd5b341561007257600080fd5b610124600480803590602001908201803590602001908080601f0160208091040260200160405190810160405280939291908181526020018383808284378201915050505050509190803590602001908201803590602001908080601f0160208091040260200160405190810160405280939291908181526020018383808284378201915050505050509190803573ffffffffffffffffffffffffffffffffffffffff1690602001909190505061045d565b005b341561013157600080fd5b610166600480803573ffffffffffffffffffffffffffffffffffffffff1690602001909190803590602001909190505061067f565b604051808060200180602001838103835285818151815260200191508051906020019080838360005b838110156101aa57808201518184015260208101905061018f565b50505050905090810190601f1680156101d75780820380516001836020036101000a031916815260200191505b50838103825284818151815260200191508051906020019080838360005b838110156102105780820151818401526020810190506101f5565b50505050905090810190601f16801561023d5780820380516001836020036101000a031916815260200191505b5094505050505060405180910390f35b341561025857600080fd5b61030a600480803573ffffffffffffffffffffffffffffffffffffffff1690602001909190803590602001908201803590602001908080601f0160208091040260200160405190810160405280939291908181526020018383808284378201915050505050509190803590602001908201803590602001908080601f0160208091040260200160405190810160405280939291908181526020018383808284378201915050505050509190505061087c565b005b341561031757600080fd5b610343600480803573ffffffffffffffffffffffffffffffffffffffff1690602001909190505061093a565b60405180806020018473ffffffffffffffffffffffffffffffffffffffff1673ffffffffffffffffffffffffffffffffffffffff16815260200180602001838103835286818151815260200191508051906020019080838360005b838110156103b957808201518184015260208101905061039e565b50505050905090810190601f1680156103e65780820380516001836020036101000a031916815260200191505b50838103825284818151815260200191508051906020019080838360005b8381101561041f578082015181840152602081019050610404565b50505050905090810190601f16801561044c5780820380516001836020036101000a031916815260200191505b509550505050505060405180910390f35b600060016000808473ffffffffffffffffffffffffffffffffffffffff1673ffffffffffffffffffffffffffffffffffffffff168152602001908152602001600020600001805490500190506000808373ffffffffffffffffffffffffffffffffffffffff1673ffffffffffffffffffffffffffffffffffffffff16815260200190815260200160002060000180548060010182816104fc9190610b78565b916000526020600020900160008390919091505550836000808473ffffffffffffffffffffffffffffffffffffffff1673ffffffffffffffffffffffffffffffffffffffff1681526020019081526020016000206001016000838152602001908152602001600020600001908051906020019061057a929190610ba4565b50826000808473ffffffffffffffffffffffffffffffffffffffff1673ffffffffffffffffffffffffffffffffffffffff168152602001908152602001600020600101600083815260200190815260200160002060010190805190602001906105e4929190610ba4565b50336000808473ffffffffffffffffffffffffffffffffffffffff1673ffffffffffffffffffffffffffffffffffffffff168152602001908152602001600020600101600083815260200190815260200160002060020160006101000a81548173ffffffffffffffffffffffffffffffffffffffff021916908373ffffffffffffffffffffffffffffffffffffffff16021790555050505050565b610687610c24565b61068f610c24565b6000808573ffffffffffffffffffffffffffffffffffffffff1673ffffffffffffffffffffffffffffffffffffffff16815260200190815260200160002060010160008481526020019081526020016000206000016000808673ffffffffffffffffffffffffffffffffffffffff1673ffffffffffffffffffffffffffffffffffffffff1681526020019081526020016000206001016000858152602001908152602001600020600101818054600181600116156101000203166002900480601f0160208091040260200160405190810160405280929190818152602001828054600181600116156101000203166002900480156107ce5780601f106107a3576101008083540402835291602001916107ce565b820191906000526020600020905b8154815290600101906020018083116107b157829003601f168201915b50505050509150808054600181600116156101000203166002900480601f01602080910402602001604051908101604052809291908181526020018280546001816001161561010002031660029004801561086a5780601f1061083f5761010080835404028352916020019161086a565b820191906000526020600020905b81548152906001019060200180831161084d57829003601f168201915b50505050509050915091509250929050565b6000600260008573ffffffffffffffffffffffffffffffffffffffff1673ffffffffffffffffffffffffffffffffffffffff1681526020019081526020016000209050828160000190805190602001906108d7929190610ba4565b50338160020160006101000a81548173ffffffffffffffffffffffffffffffffffffffff021916908373ffffffffffffffffffffffffffffffffffffffff16021790555081816001019080519060200190610933929190610ba4565b5050505050565b610942610c24565b600061094c610c24565b600260008573ffffffffffffffffffffffffffffffffffffffff1673ffffffffffffffffffffffffffffffffffffffff168152602001908152602001600020600001600260008673ffffffffffffffffffffffffffffffffffffffff1673ffffffffffffffffffffffffffffffffffffffff16815260200190815260200160002060020160009054906101000a900473ffffffffffffffffffffffffffffffffffffffff16600260008773ffffffffffffffffffffffffffffffffffffffff1673ffffffffffffffffffffffffffffffffffffffff168152602001908152602001600020600101828054600181600116156101000203166002900480601f016020809104026020016040519081016040528092919081815260200182805460018160011615610100020316600290048015610ac85780601f10610a9d57610100808354040283529160200191610ac8565b820191906000526020600020905b815481529060010190602001808311610aab57829003601f168201915b50505050509250808054600181600116156101000203166002900480601f016020809104026020016040519081016040528092919081815260200182805460018160011615610100020316600290048015610b645780601f10610b3957610100808354040283529160200191610b64565b820191906000526020600020905b815481529060010190602001808311610b4757829003601f168201915b505050505090509250925092509193909250565b815481835581811511610b9f57818360005260206000209182019101610b9e9190610c38565b5b505050565b828054600181600116156101000203166002900490600052602060002090601f016020900481019282601f10610be557805160ff1916838001178555610c13565b82800160010185558215610c13579182015b82811115610c12578251825591602001919060010190610bf7565b5b509050610c209190610c38565b5090565b602060405190810160405280600081525090565b610c5a91905b80821115610c56576000816000905550600101610c3e565b5090565b905600a165627a7a723058208c28de6e94a7137a256bd3594ffae4153cc4c72101bea6895ad8bb4ebecdc3ee0029",
  "source": "pragma solidity ^0.4.6;\n\ncontract omneeRegistry {\n    \n    struct Link {\n        string link;\n        string title;\n        address creator;\n        string status; // not in use, garbage etc...\n    }\n\n    struct Links {\n        uint[] linkList; // list of keys so we can lookup a link\n        mapping (uint => Link) linkStruct;\n    }\n    \n    mapping (address => Links) linksStruct;\n    address[] userAddressList;\n\n\n    mapping (address => Link) theLinks;\n    \n    function omneeRegistry() {\n    }\n\n    function createLink(address _address, string _URL, string _title) public {\n        var link = theLinks[_address];\n        \n        link.link = _URL;\n        link.creator = msg.sender;\n        link.title = _title;\n        \n        //instructorAccts.push(_address) -1;\n    }\n\n    function newLink(string _url, string _title, address _omneeID) {\n        var newID = linksStruct[_omneeID].linkList.length + 1;\n        linksStruct[_omneeID].linkList.push(newID);\n        linksStruct[_omneeID].linkStruct[newID].link = _url;\n        linksStruct[_omneeID].linkStruct[newID].title = _title;\n        linksStruct[_omneeID].linkStruct[newID].creator = msg.sender;\n    }\n\n    // return link and title\n    function getALink(address _omneeID, uint _linkID) view public returns (string, string) {\n        return (linksStruct[_omneeID].linkStruct[_linkID].link,\n            linksStruct[_omneeID].linkStruct[_linkID].title);\n    }\n\n    function getLink(address _address) view public returns (string, address, string) {\n        return (theLinks[_address].link, theLinks[_address].creator, theLinks[_address].title);\n    }\n}",
  "sourcePath": "/Library/WebServer/Documents/DataBankingReact/contracts/omneeRegistry.sol",
  "compiler": {
    "name": "solc",
    "version": "0.4.19+commit.c4cbbb05.Emscripten.clang"
  },
  "schemaVersion": "1.0.1",
  "updatedAt": "2018-03-18T18:25:27.254Z"
}