{
  "contractName": "omneeID",
  "abi": [
    {
      "constant": true,
      "inputs": [],
      "name": "owner",
      "outputs": [
        {
          "name": "",
          "type": "address"
        }
      ],
      "payable": false,
      "stateMutability": "view",
      "type": "function"
    },
    {
      "inputs": [
        {
          "name": "_entity_type",
          "type": "uint256"
        },
        {
          "name": "_f_name",
          "type": "string"
        },
        {
          "name": "_l_name",
          "type": "string"
        },
        {
          "name": "_email",
          "type": "string"
        },
        {
          "name": "_NHSNum",
          "type": "uint256"
        },
        {
          "name": "_senderAddress",
          "type": "address"
        }
      ],
      "payable": false,
      "stateMutability": "nonpayable",
      "type": "constructor"
    },
    {
      "constant": false,
      "inputs": [
        {
          "name": "_title",
          "type": "string"
        },
        {
          "name": "_key",
          "type": "string"
        },
        {
          "name": "_comment",
          "type": "string"
        }
      ],
      "name": "addKey",
      "outputs": [],
      "payable": false,
      "stateMutability": "nonpayable",
      "type": "function"
    },
    {
      "constant": true,
      "inputs": [],
      "name": "changeInfo",
      "outputs": [
        {
          "name": "",
          "type": "string"
        }
      ],
      "payable": false,
      "stateMutability": "view",
      "type": "function"
    },
    {
      "constant": true,
      "inputs": [],
      "name": "getName",
      "outputs": [
        {
          "name": "_f_name",
          "type": "string"
        }
      ],
      "payable": false,
      "stateMutability": "view",
      "type": "function"
    },
    {
      "constant": true,
      "inputs": [],
      "name": "getInfo",
      "outputs": [
        {
          "name": "name_",
          "type": "string"
        },
        {
          "name": "lastname_",
          "type": "string"
        },
        {
          "name": "email_",
          "type": "string"
        },
        {
          "name": "NHSNum_",
          "type": "uint256"
        },
        {
          "name": "_owner",
          "type": "address"
        }
      ],
      "payable": false,
      "stateMutability": "view",
      "type": "function"
    }
  ],
  "bytecode": "0x6060604052341561000f57600080fd5b604051610e3c380380610e3c83398101604052808051906020019091908051820191906020018051820191906020018051820191906020018051906020019091908051906020019091905050856000800181905550846000600101908051906020019061007d92919061014c565b50836000600201908051906020019061009792919061014c565b5082600060030190805190602001906100b192919061014c565b508160006004018190555080600060050160006101000a81548173ffffffffffffffffffffffffffffffffffffffff021916908373ffffffffffffffffffffffffffffffffffffffff16021790555033600860006101000a81548173ffffffffffffffffffffffffffffffffffffffff021916908373ffffffffffffffffffffffffffffffffffffffff1602179055505050505050506101f1565b828054600181600116156101000203166002900490600052602060002090601f016020900481019282601f1061018d57805160ff19168380011785556101bb565b828001600101855582156101bb579182015b828111156101ba57825182559160200191906001019061019f565b5b5090506101c891906101cc565b5090565b6101ee91905b808211156101ea5760008160009055506001016101d2565b5090565b90565b610c3c806102006000396000f30060606040526004361061006d576000357c0100000000000000000000000000000000000000000000000000000000900463ffffffff16806317d7de7c1461007257806336affb46146101005780635a9b0b891461018e5780638da5cb5b1461032e578063a0829e5714610383575b600080fd5b341561007d57600080fd5b610085610466565b6040518080602001828103825283818151815260200191508051906020019080838360005b838110156100c55780820151818401526020810190506100aa565b50505050905090810190601f1680156100f25780820380516001836020036101000a031916815260200191505b509250505060405180910390f35b341561010b57600080fd5b610113610511565b6040518080602001828103825283818151815260200191508051906020019080838360005b83811015610153578082015181840152602081019050610138565b50505050905090810190601f1680156101805780820380516001836020036101000a031916815260200191505b509250505060405180910390f35b341561019957600080fd5b6101a1610650565b604051808060200180602001806020018681526020018573ffffffffffffffffffffffffffffffffffffffff1673ffffffffffffffffffffffffffffffffffffffff168152602001848103845289818151815260200191508051906020019080838360005b83811015610221578082015181840152602081019050610206565b50505050905090810190601f16801561024e5780820380516001836020036101000a031916815260200191505b50848103835288818151815260200191508051906020019080838360005b8381101561028757808201518184015260208101905061026c565b50505050905090810190601f1680156102b45780820380516001836020036101000a031916815260200191505b50848103825287818151815260200191508051906020019080838360005b838110156102ed5780820151818401526020810190506102d2565b50505050905090810190601f16801561031a5780820380516001836020036101000a031916815260200191505b509850505050505050505060405180910390f35b341561033957600080fd5b61034161088b565b604051808273ffffffffffffffffffffffffffffffffffffffff1673ffffffffffffffffffffffffffffffffffffffff16815260200191505060405180910390f35b341561038e57600080fd5b610464600480803590602001908201803590602001908080601f0160208091040260200160405190810160405280939291908181526020018383808284378201915050505050509190803590602001908201803590602001908080601f0160208091040260200160405190810160405280939291908181526020018383808284378201915050505050509190803590602001908201803590602001908080601f016020809104026020016040519081016040528093929190818152602001838380828437820191505050505050919050506108b1565b005b61046e6109f3565b60006001018054600181600116156101000203166002900480601f0160208091040260200160405190810160405280929190818152602001828054600181600116156101000203166002900480156105075780601f106104dc57610100808354040283529160200191610507565b820191906000526020600020905b8154815290600101906020018083116104ea57829003601f168201915b5050505050905090565b6105196109f3565b600860009054906101000a900473ffffffffffffffffffffffffffffffffffffffff1673ffffffffffffffffffffffffffffffffffffffff163373ffffffffffffffffffffffffffffffffffffffff1614156105ac576040805190810160405280600b81526020017f68656c6c6f20776f726c64000000000000000000000000000000000000000000815250905061064d565b60006001018054600181600116156101000203166002900480601f0160208091040260200160405190810160405280929190818152602001828054600181600116156101000203166002900480156106455780601f1061061a57610100808354040283529160200191610645565b820191906000526020600020905b81548152906001019060200180831161062857829003601f168201915b505050505090505b90565b6106586109f3565b6106606109f3565b6106686109f3565b600080600060010160006002016000600301600060040154600060050160009054906101000a900473ffffffffffffffffffffffffffffffffffffffff16848054600181600116156101000203166002900480601f01602080910402602001604051908101604052809291908181526020018280546001816001161561010002031660029004801561073b5780601f106107105761010080835404028352916020019161073b565b820191906000526020600020905b81548152906001019060200180831161071e57829003601f168201915b50505050509450838054600181600116156101000203166002900480601f0160208091040260200160405190810160405280929190818152602001828054600181600116156101000203166002900480156107d75780601f106107ac576101008083540402835291602001916107d7565b820191906000526020600020905b8154815290600101906020018083116107ba57829003601f168201915b50505050509350828054600181600116156101000203166002900480601f0160208091040260200160405190810160405280929190818152602001828054600181600116156101000203166002900480156108735780601f1061084857610100808354040283529160200191610873565b820191906000526020600020905b81548152906001019060200180831161085657829003601f168201915b50505050509250945094509450945094509091929394565b600860009054906101000a900473ffffffffffffffffffffffffffffffffffffffff1681565b6000838160000190805190602001906108cb929190610a07565b50828160010190805190602001906108e4929190610a07565b5060018160020160006101000a81548160ff0219169083151502179055508181600301908051906020019061091a929190610a07565b506009805480600101828161092f9190610a87565b916000526020600020906004020160008390919091506000820181600001908054600181600116156101000203166002900461096c929190610ab9565b5060018201816001019080546001816001161561010002031660029004610994929190610ab9565b506002820160009054906101000a900460ff168160020160006101000a81548160ff021916908315150217905550600382018160030190805460018160011615610100020316600290046109e9929190610ab9565b5050505050505050565b602060405190810160405280600081525090565b828054600181600116156101000203166002900490600052602060002090601f016020900481019282601f10610a4857805160ff1916838001178555610a76565b82800160010185558215610a76579182015b82811115610a75578251825591602001919060010190610a5a565b5b509050610a839190610b40565b5090565b815481835581811511610ab457600402816004028360005260206000209182019101610ab39190610b65565b5b505050565b828054600181600116156101000203166002900490600052602060002090601f016020900481019282601f10610af25780548555610b2f565b82800160010185558215610b2f57600052602060002091601f016020900482015b82811115610b2e578254825591600101919060010190610b13565b5b509050610b3c9190610b40565b5090565b610b6291905b80821115610b5e576000816000905550600101610b46565b5090565b90565b610bc591905b80821115610bc15760008082016000610b849190610bc8565b600182016000610b949190610bc8565b6002820160006101000a81549060ff0219169055600382016000610bb89190610bc8565b50600401610b6b565b5090565b90565b50805460018160011615610100020316600290046000825580601f10610bee5750610c0d565b601f016020900490600052602060002090810190610c0c9190610b40565b5b505600a165627a7a723058206b8188bcc95c8cf7e5a55caa12b4e5fb7fc3a6d5e946e1b619177ad9b0dee5a00029",
  "source": "pragma solidity ^0.4.6;\n\ncontract omneeID {\n    struct omneeInfo {\n        uint entityType;\n        string firstname;\n        string lastname;\n        string email;\n        uint NHSNum;\n        address owner;\n        string msgServer;\n        bool approved;\n    }\n\n    struct key {\n        string title;\n        string key;\n        bool status;\n        string comment;\n    }\n\n    omneeInfo omneeUser;\n    address public owner;\n\n    // list of keys\n    key[] keys;\n\n    // Constructor\n    function omneeID(uint _entity_type, string _f_name, string _l_name, string _email, uint _NHSNum, address _senderAddress) public {\n        // We should have a if statement and using oraclise we connect to.\n        // a server with the original omneePortal address.\n        // so that we only create this contract if it is created by it.\n        omneeUser.entityType = _entity_type;\n        omneeUser.firstname = _f_name;\n        omneeUser.lastname = _l_name;\n        omneeUser.email = _email;\n        omneeUser.NHSNum = _NHSNum;\n        omneeUser.owner = _senderAddress;\n        owner = msg.sender;\n    }\n\n    // Add a key to your contract\n    // status is automatically set as active, = 1\n    function addKey(string _title, string _key, string _comment) public {\n        key newKey;\n        newKey.title = _title;\n        newKey.key = _key;\n        newKey.status = true;\n        newKey.comment = _comment;\n        keys.push(newKey);\n    }\n\n    // function to make changes to users primary information\n    function changeInfo() public view returns(string) {\n        // Only the creator can alter the name --\n        // the comparison is possible since contracts\n        // are implicitly convertible to addresses.\n        if (msg.sender == address(owner)) {\n            return \"hello world\";\n        } else {\n            return omneeUser.firstname;\n        }\n    }\n\n    function getName() public view returns(string _f_name) {\n        return omneeUser.firstname;\n    }\n\n    // Returns all the users info\n    function getInfo() public view returns(string name_, string lastname_, string email_, uint NHSNum_, address _owner) {\n        return (omneeUser.firstname, omneeUser.lastname, omneeUser.email, omneeUser.NHSNum, omneeUser.owner);\n    }\n\n    // Description of what is being returned\n    //function getInfoDesc() public view returns(string name_, string lastname_, string email_, uint NHSNum_, address _owner) {\n        //return (\"First name\", \"Last name\", \"Email\", \"NHS number\", \"Owner address\");\n    //}\n}\n",
  "sourcePath": "/Library/WebServer/Documents/omnee/DataBankingReact/contracts/omneeID.sol",
  "compiler": {
    "name": "solc",
    "version": "0.4.19+commit.c4cbbb05.Emscripten.clang"
  },
  "schemaVersion": "1.0.1",
  "updatedAt": "2018-08-02T18:08:17.248Z"
}